:100000000C94CC020C94E9020C94E9020C94E902E1
:100010000C94E9020C94E9020C94E9020C94E902B4
:100020000C94E9020C94E9020C9497120C94D911E7
:100030000C94281B0C94E9020C94E9020C94E9023C
:100040000C94E9020C94E9020C94E9020C94E90284
:100050000C94E9020C94E71A0C94E9020C94E9025E
:100060000C94E9020C94E9020C94E9020C94E90264
:100070000C94E9020C94E9020C94E9020C94E90254
:100080000C94E9020C94E9020C94E9020C94E90244
:100090000C94E9020C94E9020C94E9020C94E90234
:1000A0000C94E9020C94E9020C94E90281058105A3
:1000B000B705B70526064206E007E0074D062B0701
:1000C0003E073E07EC0F1310C1111310C1115F1052
:1000D0008210C11177118711B318B818C218B61859
:1000E000BB18C018BE18F019F319F619F919FC1944
:1000F000FF19021A000000000000000000000000CC
:1001000000000000000000000000000000000000EF
:1001100000000000000000007E0F00D4FFFFFFC7BA
:100120000000007800000000000000002A2B2800DA
:100130000000000000000000000000000000002996
:10014000000000002C1E3420212224342627252ED6
:10015000362D3738271E1F2021222324252633330E
:10016000362E37381F0405060708090A0B0C0D0E3A
:100170000F101112131415161718191A1B1C1D2F06
:100180003130232D350405060708090A0B0C0D0E26
:100190000F101112131415161718191A1B1C1D2FE6
:1001A0003130354C0102E301010E0103E30104315A
:1001B00030307C0102E30101090103E30035002E28
:1001C000002D00E100E30000001E00140004001DEB
:1001D00061E20029001F001A0016001B64E0002BDA
:1001E00000200008000700066850002800210015C4
:1001F00000090019004F000100220017000A000545
:10020000000000090601000251000001510000B584
:100210005D01000253000001530000010023001C97
:10022000000B00110000000100240018000D001058
:10023000005200010025000C000E00367851002C01
:1002400000260012000F0037742F002A0027001329
:10025000003300387130004C002D0031003400E5CF
:1002600000E700000029000100010001000100007A
:10027000003A001E02200222022E00B45D3B001F45
:1002800002210223020100B35D3C002F0226022F4F
:10029000000100CB5C3D003002270230000100B2BB
:1002A0005D3E003102350035020000C45C010001F2
:1002B00000000001000000CA5C0100010000000114
:1002C000000000C35C3F005200510024020000B156
:1002D0005D4000240021001E002700010041002590
:1002E0000022001F003700C65C42002600230020C9
:1002F000000100C75C430025022E0231002E0001E0
:10030000004400450001000100010000000100015F
:1003100000010001000100000001000100010001D6
:1003200000095D010001000100EF00010001000172
:10033000000100ED00EE000100F1000100010001EC
:1003400000F0000100F200010001000100010001C5
:100350000000000100010001000000010000000198
:100360000001000100000001000000010001000187
:100370000001000100000001000100010001000176
:1003800000A9000100010001000100AC00AA00B6B4
:1003900000010001000100AB00A800010001000104
:1003A000000100010001000100005C0100AE00013D
:1003B000000100000005010980A101850319012A3F
:1003C000B700150126B700950175108100C0050C16
:1003D0000901A101850419012AA002150126A00224
:1003E000950175108100C005010906A1018506056A
:1003F0000719E029E7150025019508750181020517
:1004000007190029EF1500250195F07501810205F6
:10041000081901290595057501910295017503914A
:1004200001C005010902A1010901A1000509190185
:10043000290815002501950875018102050109307B
:1004400009311581257F95027508810609381581C6
:10045000257F950175088106050C0A38021581254E
:100460007F950175088106C0C00660FF0961A10182
:100470000962150026FF00952075088102096315A1
:100480000026FF00952075089102C005010906A10C
:1004900001050719E029E715002501950875018177
:1004A000029501750881010507190029FF1500262D
:1004B000FF009506750881000508190129059505B5
:1004C00075019102950175039101C0090274000440
:1004D0000100A0FA09040000010301010009211133
:1004E0000100012240000705810308000109040101
:1004F000000203000000092111010001222200076F
:1005000005830320000107050403200001090402FC
:100510000001030102000921110100012247000727
:10052000058203080001090403000103000000091B
:100530002111010001226D00070585032000011231
:100540000100020000000897327449010001020016
:100550000116034500720067006F0044006F0078C9
:1005600000200045005A00000028035A00530041B3
:1005700000200054006500630068006E006F006C8E
:10058000006F006700790020004C0061006200737A
:10059000000000040309040011241FBECFEFDAE0BD
:1005A000DEBFCDBF11E0A0E0B1E0E6E5F6E402C0B9
:1005B00005900D92AA36B107D9F722E0AAE6B1E07C
:1005C00001C01D92A03CB207E1F70E94F7130C9402
:1005D00029230C940000A5E2B0E0E1EFF2E00C94D6
:1005E0009520FC018081918123813481232B31F07E
:1005F0009F3F31F491E08F3F19F403C091E001C0B7
:1006000090E090FD1AC58F0185E0DE019196019082
:100610000D928A95E1F7D80112962C9189A19AA1A1
:10062000222349F00E942A1DF82E682F89A19AA141
:100630000E94A81D03C00E94731DF82E69A17AA113
:100640008F2D0E9466084C0190912302F80182814F
:10065000992309F44DC08111F1C1E0916C01E3309F
:10066000A0F481E08E0F80936C01F0E0EE0FFF1F8D
:10067000E45AFD4FD8018D919C919183808382E053
:100680008983CE0101960E94CB13BFEFE3EDF0E327
:10069000B150E040F040E1F700C0000080916C01F3
:1006A000833009F0CBC110926C01E2E6F2E0ACE5D8
:1006B000B2E088E692E0318111962C9111973213C5
:1006C0002EC030812C9132132AC0329612968E178A
:1006D0009F0789F784E0898381E0809324028EEF6D
:1006E0008A8310922302CE0101960E94CB13A6C1E9
:1006F000909124029923C1F0811102C087E001C0CA
:1007000086E08983D8018C918A8311968C918B83A2
:100710008EEF8C83CE0101960E94CB1305C083E03F
:10072000898310922402DBCFD80112968C91BFEA04
:100730008B16BDE59B0609F040C0882309F406C16D
:100740009091280281E0890F8770987F853020F48E
:10075000892B8093280202C090932802809128025E
:100760008770BFEF8B9FC001112495958795959554
:1007700087959927909389008093880090938B00A8
:1007800080938A0090938D0080938C004091280282
:100790005091290260912A0270912B028FE090E023
:1007A0000E946C2160913A0270913B0280913C0260
:1007B00090913D020E949918C9C0E5EB8E16EDE5B7
:1007C0009E0609F0C3C0882309F4C0C064EAE62E7F
:1007D00061E0F62E7AE0472EF7012491222309F4F6
:1007E000B5C0213009F04EC031968491813069F452
:1007F000F2E0EF0EF11CF7018491893319F060E00B
:1008000070E09CC060E570E099C0823041F4F2E095
:10081000EF0EF11CF70184910E94EE1E93C083300D
:1008200041F4F2E0EF0EF11CF70184910E94B91E31
:1008300089C0843009F085C0F2E0EF0EF11CF701A9
:10084000249180E090E030E0205331092A303105D6
:1008500070F4489EA001499E500D1124C901840FD7
:10086000951FFFEFEF1AFF0AF7012491ECCF0097D5
:1008700009F468C0AFE9BFE01197F1F700C00000CC
:100880000197F5CFE22FF0E0EC5DFE4F5490822F00
:1008900086958695869590E0FC01EC5EFE4F64900F
:1008A0002770712C022E02C0759467940A94E2F7A7
:1008B000B1E06B227724FC01EC5FFE4FA490B12CD9
:1008C000022E02C0B594A7940A94E2F7E1E0AE22AA
:1008D000BB24FC01EC50FF4FC490D12C02C0D59436
:1008E000C7942A95E2F7F1E0CF22DD246114710468
:1008F00019F081EE0E94EE1EA114B10409F494C314
:1009000086EE0E94EE1E29E3521609F487C360E0CA
:1009100070E0852D0E94931FA114B10419F086EE9A
:100920000E94B91E6114710419F081EE0E94B91E73
:10093000C114D10439F060E070E08CE20E94931F92
:1009400001C07F013FEFE31AF30A46CFF80182812D
:10095000882309F485C08CE588168DE5980609F48E
:1009600067C068F48114ACE59A06C1F0BFED8B1640
:10097000BCE59B0609F074C00E94190A4EC0EEE562
:100980008E16EDE59E0609F44BC008F453C029EA23
:1009900082162DE5920609F440C062C01092F5015E
:1009A0000E94941E3FEF84E39CE0315080409040D1
:1009B000E1F700C00000F89481E08093E00080E25D
:1009C0008093D8001092C900AFE1BEE41197F1F70F
:1009D00000C000001DBA109268001CBC10BE1FBAF7
:1009E00010927A0010926E0010926F0010927100B7
:1009F000109272001092C9001092BC0014B817B87F
:100A00001AB81DB810BA1092BC0015B818B81BB8A7
:100A10001EB811BA0C94003F11C00E9481180EC07C
:100A20008091810282FB882780F991E0892703C0A9
:100A300081E001C080E00E94140B12C08091C501CA
:100A4000877009F4FAC2F8018281882309F4F5C29B
:100A50008091810282FFF1C282E00E94F70AEDC21A
:100A6000D80112968C911297ED90FC90882349F052
:100A7000C7010E942A1DD82E682FC7010E94A81DF9
:100A800004C0C7010E94731DD82EB7018D2D0E948E
:100A900066080E947F087C01982ED8011296DC908F
:100AA00012971596AC90A2945FE0A5228091C501A3
:100AB0008770B9F0DD20A9F08F2D807F803421F080
:100AC00080E28E0D883068F08091810282FF09C03B
:100AD00082E00E94F70A8091C5018770CC24C394FC
:100AE0008111C12CBF2CB2944FE0B4228B2D90E029
:100AF0008C30910508F064C2FC01EA5AFF4F0C9457
:100B0000F5218F2D807F9F2D9F70F92E882319F05E
:100B1000F29430EFF322DD20B9F0FF2009F43DC25A
:100B200080E28E0D883010F0911006C08091F501A2
:100B3000F82AF092F50105C08091E601F82AF092BA
:100B4000E6010E94A20A29C28E2D0E94B91EFF2032
:100B500009F436C280E28E0D883098F1992089F12F
:100B6000F0948091E601F822F092E6012DC08F2DDD
:100B7000807F9F2D9F70F92E803219F0F29420EF24
:100B8000F2228E2D992021F0B1E09B16D9F148C0B8
:100B90008091810282FD1BC0DD2069F0FF2039F0C9
:100BA0008091F501F82AF092F5010E94A20A80E0F6
:100BB0000E94EE1E05C280E00E94B91EFF2009F4CB
:100BC000FFC18F2D0E949B0A0E94A20AF9C1DD205D
:100BD00081F08091E701AA2051F0E1E0AE1207C058
:100BE000F82AF81609F4ECC1F092E701E9C18F295F
:100BF00011C0AA2021F0F1E0AF1609F4E1C10E9472
:100C0000950A20C0DD2049F0662463946A1408F434
:100C1000D7C18F2D0E94AF1ED3C1A110D1C112C068
:100C2000DD2019F0AA20A9F3B8C1AA2059F0893310
:100C300009F0C3C12FEF37EE83E0215030408040F0
:100C4000E1F7B9C18F2D0E94A81EBAC18F2D8695DC
:100C50008695837019F0813059F0B2C1DD2019F00A
:100C6000C701937002C080E090E00E948F1BAEC16C
:100C7000DD2019F0C701937002C080E090E00E946F
:100C8000791BA4C18E2DDD2019F00E94B31C02C077
:100C90000E94F91B0E94D21B99C18F2D837009F00D
:100CA00069C0D11091C19E2D929596959770990F1C
:100CB000990F8E2D8F70882E912CA12CB12C092E7E
:100CC00004C0880C991CAA1CBB1C0A94D2F7E4FE31
:100CD00012C04FE050E060E070E004C0440F551FC8
:100CE000661F771F9A95D2F7DB01CA018095909510
:100CF000A095B09503C080E090E0DC012F2D2695F3
:100D000026952370223019F1C8F44090E8015090E4
:100D1000E9016090EA017090EB01213059F08829D7
:100D20009929AA29BB29BC01CD01642175218621FD
:100D300097210AC084289528A628B728BC01CD0190
:100D4000682979298A299B290E94691E3DC1882921
:100D50009929AA29BB298090E8019090E901A090E7
:100D6000EA01B090EB01BC01CD01682579258A2507
:100D70009B25EACFDD2019F08F2D817001C086956B
:100D8000882309F421C19E2D929596959770990F0D
:100D9000990F8E2D8F70882E912CA12CB12C092E9D
:100DA00004C0880C991CAA1CBB1C0A94D2F7E4FE50
:100DB00012C04FE050E060E070E004C0440F551FE7
:100DC000661F771F9A95D2F7DB01CA01809590952F
:100DD000A095B09503C080E090E0DC012F2D269512
:100DE000269523702230D9F068F540903A02509051
:100DF0003B0260903C0270903D02213059F08829FE
:100E00009929AA29BB29BC01CD016421752186211C
:100E100097211EC084289528A628B72813C08829A2
:100E20009929AA29BB2980903A0290903B02A09070
:100E30003C02B0903D02BC01CD01682579258A2590
:100E40009B2506C0BC01CD01682979298A299B29E7
:100E50000E94DE1DB9C09F2D9F70F92EDD2039F054
:100E6000892F0E94471E8E2D0E94AF1EADC08E2D71
:100E70000E94A81E8F2D0E94211EA6C08E2DA2EFBB
:100E80009A1609F445C0A91538F0B0EF9B1669F021
:100E9000E1EF9E16C1F17CC0F3EF9F1609F43FC04D
:100EA00094EF692E961459F173C0DD2011F1A11051
:100EB00087C02F2D2F7181E090E0A0E0B0E0AC0161
:100EC000BD0104C0440F551F661F771F2A95D2F736
:100ED00080913A0290913B02A0913C02B0913D0278
:100EE0003A014B01682679268A269B26C401B30164
:100EF0002BC0772473947A1408F462C0DACF8091FF
:100F0000810282FD24C0DD2029F08F2D8F7133C036
:100F1000DD20D9F38F2D8F710E94211E51C0DD205D
:100F200081F02F2D2F7181E090E0A0E0B0E0BC01B6
:100F3000CD0104C0660F771F881F991F2A95D2F72D
:100F400003C060E070E0CB010E94DE1D39C0DD20EF
:100F5000A9F02F2D2F71F22E822F0E94471E809113
:100F6000810282FF07C038E0F39EC0011124836034
:100F70008093C5018F2D0E94471E22C081E00E94F0
:100F8000F70A81E08A15E0F482E00E94F70A18C0AF
:100F9000DD2029F0AA2009F4B8CF8E2D09CEAA2091
:100FA00009F4B8CF893349F49FEFA7EEB3E091502D
:100FB000A040B040E1F700C000008E2D0E94B91E95
:100FC00088EF8B0D843010F40E94A51BCC20A9F073
:100FD0008091C50180FD11C0F8011282859585952B
:100FE00085950E94471EC8010E94EB028091C501B1
:100FF0008595859585950E94211E85E0F801DE0185
:10100000119601900D928A95E1F709811A81C80124
:101010000E94731DB8010E9466080FC060E570E071
:1010200089E30E94931F7BCCB9E35B1270CC60E52F
:1010300070E089E30E94931F75CCA596E0E10C94C3
:10104000B12080E008959091800292FF0DC0282F7A
:101050002871283019F4877F846006C0282F2471F6
:10106000243011F48B7F886093FF0DC0282F2871E6
:10107000283119F4877E846106C0282F2471243119
:1010800011F48B7E88612091810220FF0DC0382FE2
:101090003871383019F4877F816006C0382F31717C
:1010A000313011F48E7F886021FF0DC0282F287108
:1010B000283119F4877E816106C0282F21712131E2
:1010C00011F48E7E886194FD877E08957E30A0F4B1
:1010D000663090F494E5899FF001112486E0789FB2
:1010E000E00DF11D1124E60FF11DEE0FFF1FE3547B
:1010F000FE4F85919491089580E090E00895CF93FC
:10110000DF938238910569F1B0F48133910509F4D8
:101110006FC048F48932910509F465C08A3291059F
:1011200009F46BC08AC08533910509F457C089332F
:101130009105B9F082C0833E910571F138F4803E8B
:101140009105B1F0823E910511F177C0863E91057F
:10115000B9F1873E9105C9F1843E910509F06DC052
:1011600024C02091800220FD53C021FD51C065C0E4
:101170008091800280FD46C08091810280FF48C03E
:101180008091800284FD50C183EE90E04FC1809138
:10119000800282FF3AC0F4CF8091800282FD35C088
:1011A0008091810280FD34C0EBCF8091810281FF6C
:1011B00035C08091800284FD37C187EE90E036C152
:1011C0008091800283FF27C0F4CF8091800283FD4D
:1011D00022C08091810281FD21C0EBCF80918002ED
:1011E00085FD1FC021C08091800285FD1DC019C0F2
:1011F0008091800286FD1BC01DC08091800286FD0B
:1012000019C015C089E390E011C182EE90E00EC1D3
:1012100080EE90E00BC186EE90E008C184EE90E095
:1012200005C189E290E002C185E390E0FFC08AE257
:1012300090E0FCC081E390E0F9C0811531E59307AF
:1012400008F069C0811540E59407F0F09C0174E056
:10125000369527957A95E1F7922F9370482F437032
:1012600021E030E002C0220F331F4A95E2F73C68CC
:10127000392B982F9F709695969540E2949FC001C8
:101280001124822B932BD2C0883E910568F5803EB5
:10129000910508F0CBC0883A9105B8F4853A9105DC
:1012A00048F0855AE82FF0E0E75EFE4F808190E03D
:1012B0009064BCC08130910509F4B3C008F4B4C097
:1012C0008430910508F4B0C0B1C08F3B910508F09F
:1012D000ABC0885AE82FF0E0EE0FFF1FE45EFE4F30
:1012E000808191819464A2C0811520E2920758F414
:1012F000811531E0930708F099C08D3E910508F4FF
:1013000093C0906593C0811540E4940708F48CC0A5
:101310009F70906A8BC0811525E5920708F042C046
:10132000811534E5930728F0982F8827846F906AF9
:101330007DC0811543E59407B0F09C0123703327ED
:1013400041E050E002C0440F551F2A95E2F7282FD4
:101350002695269580E2289F90011124CA01822BB0
:10136000932B9A6863C0811522E5920728F4982F81
:101370008827816F906A5AC09C012370332741E00F
:1013800050E002C0440F551F2A95E2F7282F2695FA
:10139000269580E2289F90011124CA01822B932B6D
:1013A0009C6844C0EC01811539E59307A8F48115C8
:1013B000984528F09C2F8827806F906A37C0C11508
:1013C00086E5D80788F58C2F0E9423088F7190E05E
:1013D000982F882790622AC081152AE5920790F4F9
:1013E0008C2F8F700E94230894E0D695C7959A950C
:1013F000E1F7CF70D0E0DC2FCC27D0699E01282BFD
:10140000C90114C090568115904270F48D2F8F71D0
:101410000E942308282F2F71CE0199279062922BCA
:1014200005C081E090E002C080E090E0DF91CF91C4
:10143000089568EE7EEF80E090E00E94782160E001
:1014400082E090E00E945A2160E083E090E00E94F8
:101450005A211092E8011092E9011092EA011092CB
:10146000EB0160E084E090E00E945A2164E082E2B7
:1014700090E00E945A2160E085E090E00E945A21AD
:1014800060E086E090E00E945A216FEF87E090E0F4
:101490000E945A2140E050E0BA0188E090E00E94AA
:1014A0006C2160E08DE090E00E945A2140E050E025
:1014B000BA0188E190E00E946C2160E087E190E051
:1014C0000E945A2140E050E0BA018CE190E00E9475
:1014D0006C2160E070E080E290E00E94782140E0C2
:1014E00050E0BA0188E190E00E946C21109228023D
:1014F0001092290210922A0210922B0284E080930B
:101500002802409128025091290260912A0270918C
:101510002B028FE090E00E946C2140E050E0BA0185
:1015200083E190E00E946C2108958091E701811190
:101530001092E701089580959091F5018923809399
:10154000F50108959091F5018091E601982B909313
:101550006D018091E7018823D9F0892B80936D017B
:1015600080910A01882331F08091800287FF02C0B8
:101570008EE101C086E0EFE6F1E090E0815028F0D6
:1015800021912223D9F39F5FF9CF91110E94950AEF
:1015900040E250E066EC71E08DE691E00E941C2391
:1015A000892B21F180E2EDE6F1E0A6ECB1E00190BB
:1015B0000D928A95E1F7E0917702F09178023097E9
:1015C000A9F080910A01882359F08091800287FF59
:1015D00007C080916D0180936E0186E080936D015C
:1015E0000280F381E02D8DE691E009950895209128
:1015F000C501809582238093C501982F977099F437
:1016000030E0482F082E000C550B2417350759F0F1
:101610009091810292FF07C08595859585950E94DE
:10162000211E1092C5010895CF93C0918102C2FB83
:10163000992790F9981791F080FBC2F9C093810225
:101640006091800284E090E00E945A216C2F82E237
:1016500090E00E945A2182E00E94F70ACF910895FB
:101660008091C40190919301891719F08F5F877061
:10167000FBCF08950F931F93CF93DF938091920137
:1016800082958F7009F05AC080918F01882309F4E8
:1016900055C08091C4011091930160918D017091AA
:1016A0008E01C0919001D091910191E06F3F09F0BE
:1016B00090E0292F06E0811709F440C0209721F01F
:1016C0007F3F21F030E003C031E001C0322F90E0D5
:1016D00030FD31C0089FF001099FF00D1124DF019A
:1016E000AC56BE4F11963C911197371324C03C91D4
:1016F000361321C012963C91129731111CC01396DB
:101700004D915C9114974C1B5D0B483C510598F42E
:10171000809192018F70806180939201E756FE4F15
:1017200080818F70806180838DE891E00E94EB0260
:101730000E94300B03C001968770BDCFDF91CF911F
:101740001F910F910895A1E1B0E0E9EAFBE00C944C
:101750009A208C0185E0F801DE011D9601900D9222
:101760008A95E1F7F801E28090918D0160918E01F8
:1017700040919001509191014115510531F06F3F19
:1017800031F481E09F3F19F403C081E001C080E0A3
:10179000F82FF1709F2E80FD1BC1F801308121814F
:1017A000C380D4808DE8A82E81E0B82EF0908F0100
:1017B000F601E41BF50BFF2009F4C7C080919201EC
:1017C000E83CF10508F092C0482F407F09F051C075
:1017D000621311C093130FC0FE2CE1100CC08F7068
:1017E000806180939201C5010E94EB028091920179
:1017F000F80185832AC1C114D10431F02F3F31F49F
:1018000081E03F3F19F403C081E001C080E080FD2A
:1018100003C081E08E2502C080E090E0F82FF170D7
:10182000FF2E80FF1CC08091C4014091930156E0BF
:10183000841709F4E8C090E0589FF001599FF00D1B
:101840001124EC56FE4F6181261306C0608163139C
:1018500003C06281E61203C001968770E9CFFE2CB7
:10186000EE2009F4F2C08091920181608093920190
:1018700049C0621306C0931304C0E11002C0F8010E
:1018800086C0C8010E94741E882351F1EE2041F1E8
:1018900020919201822F82958F7090E0029774F0D0
:1018A00080918D0190918E0198878F831986DB86B8
:1018B000CA862C87CE0107960E94EB0286E0F801CB
:1018C000ADE8B1E001900D928A95E1F70E943A0BE4
:1018D0000AC06217C9F0C8010E94741E81111EC09F
:1018E000C8010E94EB02FF24F394AFC0482F407F51
:1018F00081F78DE891E00E94EB0286E0F5011192FC
:101900008A95E9F7F12CA1C09313E5CFE110E3CF5D
:10191000F8018583C8010E94EB0254C0EE2001F358
:1019200020919201822F82958F7090E0029734F27D
:1019300080918D0190918E019A8389831B82DD8233
:10194000CC822E83CE010196B7CFE83CF105D0F5CD
:10195000FE2CEE2029F2621327C0931325C020919C
:10196000920120FD18C0822F82958F70482F50E081
:101970004115510581F0F80125834F30510541F0A3
:101980008F5F982F9295907F822F8F70892B858300
:10199000C8010E94EB0286E0F801ADE8B1E00190D9
:1019A0000D928A95E1F751C0C8010E94741E811101
:1019B00085CF80919201816080939201C8010E943D
:1019C000EB0243C086E0F50111928A95E9F73DC02C
:1019D000EE2009F485CFC8010E94741EF82E8823DA
:1019E00009F47ECF86E0F801ADE8B1E001900D92F8
:1019F0008A95E1F780918D0190918E010E94661D7C
:101A00000E943A0B22C03D872E878D859E850E94BD
:101A1000661D292F22952F70223028F49F7039F0EF
:101A2000811105C00BC0243028F49F7049F4805EFA
:101A3000883020F0C8010E94EB029F2CF92C05C0D1
:101A4000F8019581907F99F7F9CF8F2D6196EBE0A2
:101A50000C94B620A0E0B0E0E0E3FDE00C949C2004
:101A60008091170190911801892B91F08091EC01E0
:101A70008F5F8093EC0181110BC00E94CB1890E026
:101A80009093180180931701892B11F40E94421939
:101A90000CE212E07801B12CC0E087E0C82ECC0E39
:101AA0008C2F0E94B2198C2D0E94B2198C2F0E948B
:101AB000151A8F73F7019081891721F08083DD2437
:101AC000D39401C0D12C8C2D0E94151A8F73F7016D
:101AD0009781891719F0878381E001C080E0D82AB7
:101AE000BD280E94061ACF5FFFEFEF1AFF0AC7302A
:101AF000A1F6C091F001CC23C9F10E941C1B2091DA
:101B0000EE013091EF01AC01421B530B9A0190930F
:101B1000EF018093EE014F3F510509F020F4452B72
:101B200009F4AEC002C02FEF30E01092F001109225
:101B3000ED01E0912602F0912702AF01425F5F4F75
:101B400090E030E08081882341F0281718F010825F
:101B50009C2F03C0821B80833C2F3196E417F5072E
:101B600089F73093F0019093ED018AC0BB2009F40E
:101B70007EC00E941C1B9093EF018093EE01E091C8
:101B80002602F09127028091F001AEE3B2E09F01BE
:101B9000225F3F4F4EE1E80199918E015C91591708
:101BA00031F05081511103C040839C9381E0319604
:101BB0001196E217F30779F78093F0012091230241
:101BC0008091F2019091F301222309F43FC0892B07
:101BD00031F425982D9826982E9827982F98809143
:101BE000F2019091F3019170892B79F48091F101C8
:101BF000882319F026982E9802C0269A2E9A909142
:101C0000F10181E089278093F1018091F2019091A7
:101C1000F3018130984780F01092230260913A02DC
:101C200070913B0280913C0290913D020E94991874
:101C30001092F3011092F2018091F2019091F30160
:101C400001969093F3018093F2011EC0892BE1F07D
:101C50001092F3011092F20160913A0270913B02EE
:101C600080913C0290913D020E9499180DC080E045
:101C70009091ED01992309F4A1CF811180CF79CF03
:101C8000B1107DCF81E0F4CF8B2DCDB7DEB7E9E089
:101C90000C94B82080911B0287FF11C08091E8004E
:101CA00082FD05C0809125028111F8CF11C080917D
:101CB000E8008B770BC080912502882349F0809142
:101CC000E80080FFF8CF8091E8008E778093E800ED
:101CD0000895982F973068F59093E900981739F098
:101CE0007091EC002091ED005091F00003C0242F82
:101CF000762F50E021FD02C09F5FECCF3091EB00CA
:101D00003E7F3093EB003091ED003D7F3093ED004E
:101D10003091EB0031603093EB007093EC00209336
:101D2000ED005093F0002091EE0027FDE5CF80E01C
:101D300008958F708093E90081E008952091210239
:101D4000309122022617370748F06115710539F4E2
:101D50002091E8002E772093E80001C0B901FC0132
:101D600020E06115710579F1809125028823F1F158
:101D70008530F1F18091E80083FD3CC08091E8005E
:101D800082FD2EC08091E80080FFEBCF2091F30010
:101D90008091F20090E0922B6115710551F088302E
:101DA000910538F421912093F10061507109019659
:101DB000F3CF21E0089709F020E08091E8008E77CA
:101DC0008093E800CECF2111CFCF0AC080912502A9
:101DD000882361F0853061F08091E80083FD0AC0BE
:101DE0008091E80082FFF2CF80E0089582E00895BC
:101DF00083E0089581E008950895BC0184E00E9485
:101E0000BC1A0895BC0183E00E94BC1A0895AAE29E
:101E1000B0E0EDE0FFE00C94A220EBE1F2E083E221
:101E200092E02091F10021938E179F07D1F78091C6
:101E30001C02833009F463C030F4813071F08230C9
:101E400009F49FC0B6C08A3009F48BC08B3009F406
:101E50006EC0893009F0ADC020C080911B02813A6C
:101E600009F0A7C08091E800877F8093E800809107
:101E70001F0290912002892B21F460E288EF91E00B
:101E800003C060E080E090E070E00E949E0E8091D0
:101E9000E8008B778093E8008CC080911B02813230
:101EA00009F087C080911F0290912002009719F0DD
:101EB000039709F07EC08091E800877F8093E80057
:101EC0008091E80082FD05C0809125028111F8CF44
:101ED00070C02091F3008091F20090E0922B029765
:101EE00031F48091F100813011F0863021F480913D
:101EF000F1008093F7018091E8008B7756C08091C4
:101F00001B02813A09F055C080911F029091200276
:101F1000892B09F04EC08091E800877F8093E8000C
:101F20008091E80080FFFCCF80910A0139C0809148
:101F30001B028132F1F580911F0290912002892BC2
:101F4000C1F58091E800877F8093E8000E944A0EE7
:101F500080911D0280930A011092F5010E94941E47
:101F600028C080911B02813221F58091E800877F93
:101F70008093E8000E944A0E80911E028093F60131
:101F800018C080911B02813AA1F48091E800877FFC
:101F90008093E8008091E80080FFFCCF8091F601FB
:101FA0008093F1008091E8008E778093E8000E9492
:101FB0004A0E8091E80083FFE4C180911B0290915A
:101FC0001C02492F50E04A30510508F0DAC1FA01ED
:101FD000EE59FF4F0C94F521803821F0823809F03A
:101FE000D0C108C08091180290911902992389F0FC
:101FF00082600FC080911F028F70873008F0C1C1CE
:102000008093E9008091EB0085FB882780F910928E
:10201000E9009091E800977F9093E8008093F100A9
:102020001092F10070C1282F2D7F09F0AAC18823DA
:1020300019F0823061F0A5C180911D02813009F054
:10204000A0C1933009F080E0809319022EC08091E6
:102050001D0281112AC080911F028F702FEF280F5F
:10206000263008F08EC18093E9002091EB0020FF1C
:102070001CC0933021F48091EB00806214C09091D9
:10208000EB0090619093EB0021E030E0A90102C0E9
:10209000440F551F8A95E2F74093EA001092EA0038
:1020A0008091EB0088608093EB001092E9008091B2
:1020B000E800877F8093E8000E944A0E62C1811188
:1020C00060C110911D021F778091E3008078812B01
:1020D0008093E3008091E800877F8093E8000E946E
:1020E0004A0E8091E80080FFFCCF8091E300806879
:1020F0008093E300111102C082E001C083E080936D
:1021000025023FC18058823008F03BC120911D025A
:1021100030911E022C3D53E0350779F583E08A8328
:102120008AE289834FB7F894DE01139620E03EE0FF
:1021300051E2E32FF0E050935700E49120FF03C0F9
:10214000E295EF703F5FEF708E2F90E0EA3010F075
:10215000C79601C0C0968D939D932F5F243149F798
:102160004FBF8091E800877F8093E8006AE270E0CB
:10217000CE0101960E949E0EB4C080911F029091E4
:102180002002432F552743305105A9F068F4413010
:10219000510509F405C14230510509F0F2C084E748
:1021A00090E0EBECF4E04BC04132510529F14232B2
:1021B000510589F1E6C0C901992781309105A1F047
:1021C00058F0029709F0DDC0E1E5F5E0E4918E2FCB
:1021D00090E0E1E5F5E030C0E3E9F5E0E4918E2F31
:1021E00090E0E3E9F5E028C0E9E6F5E0E4918E2F20
:1021F00090E0E9E6F5E020C08430910508F0C1C028
:10220000880F991FFC01EA5AFE4F0190F081E02DE2
:1022100089E090E014C08430910508F0B2C0FC0160
:10222000EE0FFF1FE25BFE4F0190F081E02DDC011D
:10223000A65BBE4F8C9190E0009709F4A2C020915C
:10224000E800277F2093E8002091210230912202AC
:102250002817390708F4C90140E0009789F1209157
:102260002502222309F43DC02530D9F12091E80050
:1022700023FD37C02091E80022FD2FC02091E80007
:1022800020FFEBCF4091F3002091F20030E0342B9F
:10229000009759F02830310540F444914093F10003
:1022A000319601972F5F3F4FF3CF41E02830310542
:1022B00009F040E02091E8002E772093E800CDCF90
:1022C0004111CDCF0AC080912502882351F085307D
:1022D00041F08091E80083FD04C08091E80082FF16
:1022E000F2CF8091E8008B778093E8004AC0803875
:1022F00009F047C08091E800877F8093E8008091D3
:102300001A028093F1008091E8008E77D3CE81117C
:1023100038C080911D0290911E02992702978CF57A
:102320008091E800877F8093E80010911D02109350
:102330001A020E944A0E111106C08091E30087FD27
:1023400002C081E001C084E08093250242E061EC9C
:1023500081E00E94690E42E061EC82E00E94690E19
:1023600042E261EC85E00E94690E42E261EC83E0AA
:102370000E94690E42E260EC84E00E94690E809146
:1023800025028091E80083FF10C08091E800877FDC
:102390008093E8008091EB0080628093EB0005C0A1
:1023A00082E190E0EFE3F5E04ACFAA96E3E00C94F7
:1023B000BE201F920F920FB60F9211242F933F93BE
:1023C0004F935F936F937F938F939F93AF93BF933D
:1023D000CF93DF93EF93FF93C091E900CF7080918B
:1023E000EC00D82FD17080FDD0E81092E9008091E8
:1023F000F000877F8093F00078940E94070F10927E
:10240000E9008091F00088608093F000CD2BCF70C0
:10241000C093E900FF91EF91DF91CF91BF91AF9110
:102420009F918F917F916F915F914F913F912F91EC
:102430000F900FBE0F901F901895E8EDF0E080818F
:102440008E7F80831092E2001092DA001092E100F9
:10245000A0EEB0E08C9181608C9380818F77808337
:1024600019BCA7EDB0E08C918E7F8C9380818F7E1C
:1024700080831092F4010895A0E0B0E0E2E4F2E17C
:102480000C949D20C8EDD0E088818F7E8883E7ED95
:10249000F0E080818160808384E082BF81E080936E
:1024A000F40188818E7F888302EE10E0F8011082AB
:1024B0001092DA0081EEC82ED12CF60110828881AC
:1024C0008F77888388818068888388818F7D8883DF
:1024D00019BC1092250210921A0210921902109241
:1024E000180290EEE92EF12CF70180818B7F80831A
:1024F00088818160888342E060E080E00E94690E0C
:10250000F60180818E7F8083F801808181608083E5
:10251000808188608083F70180818E7F80838881BD
:1025200080618883CDB7DEB7E8E00C94B9201F92B4
:102530000F920FB60F9211242F933F934F935F93F7
:102540006F937F938F939F93AF93BF93EF93FF937B
:102550008091E10082FF09C08091E20082FF05C006
:102560008091E1008B7F8093E1008091DA0080FF11
:102570002AC08091D80080FF26C08091DA008E7F2B
:102580008093DA008091D90080FF18C080E189BD76
:1025900082E189BD09B400FEFDCF81E08093250270
:1025A0008091F40181110FC00E941D120E943C1203
:1025B0008091E20084608093E20005C019BC109213
:1025C00025021092F4018091E10080FF17C08091F4
:1025D000E20080FF13C08091E2008E7F8093E200D2
:1025E0008091E20080618093E2008091D800806257
:1025F0008093D80019BC85E0809325028091E1008A
:1026000084FF30C08091E20084FF2CC080E189BD4E
:1026100082E189BD09B400FEFDCF8091D8008F7D95
:102620008093D8008091E1008F7E8093E1008091BB
:10263000E2008F7E8093E2008091E20081608093CF
:10264000E20080911A02882311F084E007C0809193
:10265000E30087FD02C081E001C083E08093250292
:10266000809125028091E10083FF27C08091E200E4
:1026700083FF23C08091E100877F8093E10082E0A7
:102680008093250210921A028091E1008E7F809340
:10269000E1008091E2008E7F8093E2008091E20071
:1026A00080618093E20042E060E080E00E94690E79
:1026B0008091F00088608093F000FF91EF91BF91CE
:1026C000AF919F918F917F916F915F914F913F91CA
:1026D0002F910F900FBE0F901F9018952091E4003E
:1026E0003091E50095E64091EC00842F817040FF29
:1026F00023C08091E80080FD1DC0809125028823C1
:1027000099F0853099F08091EB0085FD11C04091E2
:10271000E4005091E5002417350729F3915011F09A
:102720009A01E1CF84E0089582E0089583E008955E
:1027300081E0089580E008954091E80042FFDDCFF8
:102740000895EF92FF920F931F93CF93DF937C0135
:102750008B010E946E13811119C0E701011511054B
:10276000A1F08091E80085FD0AC08091E8008E7795
:102770008093E8000E946E13882381F307C089913B
:102780008093F10001501109E9CF80E0CDB7DEB7A9
:10279000E6E00C94BB20CF9320912502243029F54C
:1027A000C091E900CF703091EC00232F217030FDF3
:1027B00020E8C22B23E02093E9002091E80020FFCD
:1027C00011C040E050E060E270E00E94A113882355
:1027D00021F010922302109224028091E8008E775B
:1027E0008093E800CF70C093E900CF910895ACE5E5
:1027F000B0E0EDEFF3E10C949B2085B7806885BFD6
:1028000085B7806885BF84B7877F84BF0FB6F8948B
:10281000A8958091600088618093600010926000AC
:102820000FBE90E080E80FB6F8948093610090931B
:1028300061000FBE81E298E090936B0180936A0182
:102840000E941D120E943C128091E20084608093DD
:10285000E2007894809125028823A1F01091E9008C
:102860001F709091EC00892F817090FD80E8182BEB
:102870001092E9008091E80083FD0E94070F1F700D
:102880001093E90082E084BD93E095BD9AEF97BD77
:1028900080936E000E94CB1890E090931801809373
:1028A00017010E94061A0E944C1AECE2F2E0AEE315
:1028B000B2E011921D9222E0EA33F207D1F78EE0E6
:1028C00090E00E94FB218093260290932702FC0156
:1028D0000E961192E817F907E1F789EA80938000D4
:1028E00089E08093810024982C983F988AB18F7C4E
:1028F0008AB96E98479A8BB180638BB9769A8FE0CC
:1029000090E00E943E2160932802709329028093F8
:102910002A0290932B0267703FEF639FB00111244E
:10292000759567957595679577277093890060937E
:10293000880070938B0060938A0070938D00609381
:102940008C000E94421980E090E00E944421883E61
:102950009E4F11F00E94190A82E090E00E943621F9
:1029600080934C0284E090E00E943621182F82E28E
:1029700090E00E943621212F30E0382B30938102E5
:102980002093800283E090E00E943621682F70E05F
:1029900080E090E00E94691E60913A0270913B02D3
:1029A00080913C0290913D020E9499188BE091E049
:1029B000909378028093770288E1E82EF12C90E4DE
:1029C000D92E80912502853009F054C000E112E132
:1029D00080912502853009F047C08091250284301E
:1029E00009F110927B020FB6F894A895E09260006E
:1029F0000FBED092600083B7817F846083BF83B7AE
:102A0000816083BF7894889583B78E7F83BF0FB62C
:102A1000F894A8958091600088618093600010927E
:102A200060000FBE80911902882391F20E94CB189A
:102A300090E090931801809317010E94061A0E945B
:102A40004C1AEEE3F2E0119282E0EC34F807D9F789
:102A50000E942A0DEEE3F2E08191811142C222E050
:102A6000EC34F207C9F7B4CF1092F5010E94941E1E
:102A70000E94A51B0E942A0D882359F08FB7F89455
:102A800040917C0250917D0260917E0270917F02A4
:102A90008FBFADE4B2E0EEE3F2E000E010E0302FF3
:102AA00021919D919227A1F180E0CC24C394492FDC
:102AB0004C2151F164968FAF649765963FAF65974F
:102AC0002C2181E009F480E066968FAF66970E9422
:102AD0001C1B8160782F68969FAF8EAF68976496B5
:102AE0004FAD649765965FAD659766966FAD6697D7
:102AF00068968FAD68970E949217F801E35BFD4FCF
:102B00008081C826C0822AC08F5FCC0C863079F6BF
:102B10000F5F1F4F0E30110509F0C1CF8FEF69967F
:102B20008FAF69976A968FAF6A976B961FAE6B9758
:102B30000E941C1B8160782F6D969FAF8EAF6D97A2
:102B400069964FAD69976A965FAD6A976B966FAD60
:102B50006B976D968FAD6D970E94921785E0E0E7B9
:102B6000F2E0DE01119601900D928A95E1F7109244
:102B700071021092720210927302109274021A8102
:102B8000111104C08B81882309F452C080916E0218
:102B900090916F020E940D1B9C0190916A029923F3
:102BA00009F4B7C12531310508F442C09F3F19F03F
:102BB0009F5F90936A02112361F00E94901C11168E
:102BC00014F09FEF01C091E0899F802D1124809324
:102BD00071021B81112361F00E94901C111614F0E8
:102BE0009FEF01C091E0899F802D11248093720294
:102BF000309171023323E1F0209172022223C1F05F
:102C000045EB3403C0011124992319F0909371020C
:102C100003C081E08093710235EB2303C0011124CE
:102C2000992319F09093720203C081E0809372029D
:102C30001C81111104C08D81882309F452C0809138
:102C40006C0290916D020E940D1B9C019091690293
:102C5000992309F462C12531310508F442C09F3F30
:102C600019F09F5F90936902112361F00E94701C1C
:102C7000111614F09FEF01C091E0899F802D11245F
:102C8000809373021D81112361F00E94701C111644
:102C900014F09FEF01C091E0899F802D1124809353
:102CA0007402309173023323E1F0209174022223E5
:102CB000C1F045EB3403C0011124992319F090931E
:102CC000730203C081E08093730235EB2303C001DC
:102CD0001124992319F09093740203C081E080932A
:102CE000740245E050E0BE016F5F7F4F80E792E0E5
:102CF0000E941C23892BA9F48091710281110FC0BD
:102D00008091720281110BC080917302811107C002
:102D100081E090917402911103C080E001C081E0D4
:102D200080FD0E94D21B85E0FE013196A0E7B2E053
:102D300001900D928A95E1F70E94A51B90915B028C
:102D4000891380935B0280912502843009F039CE8B
:102D50008093E9008091E80082FF33CE8091E80003
:102D600085FF22C00E946E1381111CC000E210E09A
:102D70005E0141E2A40EB11C08C08091F100F50192
:102D800081935F010150110969F08091E80085FD90
:102D9000F4CF8091E8008B778093E8000E946E1357
:102DA000882399F391E001C090E08091E8008B774F
:102DB0008093E800992309F404CE89A18130E9F1D8
:102DC00058F1823021F0843009F47DC0FACD8BA116
:102DD0009AA190935C0280935D028DA19CA1909337
:102DE0005E0280935F028FA19EA190936002809308
:102DF000610242E150E063E270E0CE018F5B9F4FE1
:102E00000E94262184E0898381E0809324028EEF52
:102E10008A83109223020CC019828CE0EEE5F1E067
:102E2000DE01129601900D928A95E1F78EEF8D8763
:102E3000CE0101960E94CB13C4CD02E612E00E949F
:102E4000B21BF801819391938F01F2E008361F07BE
:102E5000B1F781E08983909162029A839091630235
:102E60009B83909164029C83909165029D839091D5
:102E700066029E83909167029F839EEF988780935E
:102E80002302CE0101960E94CB1342E150E063E29F
:102E900070E0CE0101960E942621FE01319682E16A
:102EA00083301CF09189928B01C0128A8150319736
:102EB0008F3FB1F742E150E063E270E0CE0101964E
:102EC0000E944A217ECD80912402882309F479CD85
:102ED00060E070E0CB010E94DE1D8AA10E94471EC7
:102EE00070CD09BD19BD09B400FEFDCF8091D80099
:102EF0008F7D8093D8008091E00082608093E00015
:102F00008091E00081FDFCCF1092F5010E94941E9B
:102F10005FCD232B09F04CCE8BCE2139314008F008
:102F2000A0CEDFCEA7E1B0E0E8E9F7E10C94A22063
:102F30004B8B5C8B6D8B7E8B8F8B61111092E601BE
:102F400086E09E01235F3F4FD901E82F1D92EA954D
:102F5000E9F795E0FE017396D90101900D929A95DB
:102F6000E1F79C894E895F897B897D879E876F8782
:102F7000598B488BF901DE01179601900D928A95C5
:102F8000E1F7CE0107960E94A30B81113EC086E0B7
:102F9000FE013796DE01119601900D928A95E1F7B8
:102FA000FF81E8856A857B856115710531F0EF3F0A
:102FB00031F481E0FF3F19F403C081E001C080E0FB
:102FC00080FD23C02091930130E0C90101968770F4
:102FD00099274091C40150E08417950779F1F9834E
:102FE000EA837D836C8396E0929FD001939FB00D1E
:102FF0001124AC56BE4FFE01319601900D929A9568
:10300000E1F7809393010E94300B16E08091C40198
:1030100090919301891709F1189FC00111248C56D2
:103020009E4F0E94A30B8823C1F08091C40190E0C1
:103030000196877099278093C401E8CF1092F5011B
:103040000E94941E109293011092C401EDE8F1E0E9
:1030500086E0DF011D928A95E9F76796E3E00C941C
:10306000BE20CF92DF92EF92FF926C01EE24FF24FC
:10307000C114D104E104F10421F0C701B60120E13B
:1030800001C020E0C72ED82EE92EFF24C114D104A0
:10309000E104F10419F0285FC701B6016B017C015E
:1030A00054E0F694E794D794C7945A95D1F7C11495
:1030B000D104E104F10419F02C5FC701B6016B01E2
:1030C0007C0142E0F694E794D794C7944A95D1F7EF
:1030D000C114D104E104F10419F02E5FC701B60157
:1030E000DC01CB01B695A79597958795892B8A2BFF
:1030F0008B2B09F02F5F822FFF90EF90DF90CF9006
:1031000008951092F5010E94941E2FEF84E39CE035
:10311000215080409040E1F700C000009AE088E133
:103120000FB6F894A895809360000FBE909360004E
:10313000FFCFCF92DF92EF92FF926B017C010E9452
:10314000311856985E9825982D9826982E9827988D
:103150002F9890E0FC013197E730F105A8F4E4598D
:10316000FF4F0C94F521259A2D9A0EC0259A2D9A81
:10317000269A2E9A09C0259A2D9A04C0259A2D9A2E
:10318000269A2E9A279A2F9AC701B601FF90EF90A0
:10319000DF90CF90089580E290E0909318018093A3
:1031A00017018091680281110EC00E94AB1F81E05F
:1031B000809368022FEF83ED90E321508040904090
:1031C000E1F700C0000064E670E080E40E94B11FF7
:1031D0009093180180931701892B09F04EC064E683
:1031E00070E080E00E9426209093180180931701E0
:1031F000892B09F042C064E670E080E00E9426203E
:103200009093180180931701892BB9F564E670E05B
:103210008FE30E9426209093180180931701892B39
:1032200061F50E947B2064E670E080E40E94B11F9B
:103230009093180180931701892BF9F464E670E0EC
:103240008CE00E9426209093180180931701892B0F
:10325000A1F464E670E080E00E94262090931801BB
:1032600080931701892B49F464E670E08FE30E9494
:10327000262090931801809317010E947B20809153
:1032800017010895CF93DF9356985E9825982D984F
:1032900026982E9827982F98C8E8D0E08FEF90E0D6
:1032A00099838883AAE8B0E011969C938E93ECE80A
:1032B000F0E091838083259A2D9A2FEF80E792E0AA
:1032C000215080409040E1F700C00000269A2E9ADD
:1032D0002FEF80E792E0215080409040E1F700C05E
:1032E0000000279A2F9A2FEF80E792E0215080402C
:1032F0009040E1F700C0000025982D982FEF80E75F
:1033000092E0215080409040E1F700C000002698F4
:103310002E982FEF80E792E0215080409040E1F717
:1033200000C0000027982F988091280287702FEF07
:10333000829FC0011124959587959595879599272A
:103340009983888311969C938E939183808356985A
:103350005E9825982D9826982E9827982F98DF917B
:10336000CF910895CF93E82F873080F58091170192
:1033700090911801892B09F047C0CE2F64E670E0C8
:1033800080E40E94B11F9093180180931701892B4C
:10339000D1F464E670E082E10E9426209093180147
:1033A00080931701892B79F481E090E001C0880FA8
:1033B000CA95EAF764E670E080950E942620909313
:1033C0001801809317010E947B201EC090E0FC0131
:1033D0003797E730F105C0F4ED58FF4F0C94F52115
:1033E000209A289811C0219A29980EC0229A2A98CA
:1033F0000BC0239A2B9808C0529A5A9805C0539A2A
:103400005B9802C03E9A4698CF91089520982898DC
:103410002198299822982A9823982B9852985A985C
:1034200053985B983E9846980895CF93873040F51F
:103430008091170190911801892B59F564E670E08D
:1034400081E40E94B11F9093180180931701892B8A
:1034500011F0C0E011C084E690E00E94562097FF72
:1034600005C09093180180931701F3CFC82FC09522
:1034700010921801109217010E947B208C2F0AC015
:103480009FB18FB1807F869586959370892B8095AB
:1034900001C080E0CF9108958098889A8198899A98
:1034A00084988C9A85988D9A86988E9A87988F9A08
:1034B00008958091F701089522E02093E9002FEF0D
:1034C0003091E800215035FD06C035ED3A95F1F711
:1034D00000002111F5CF2091E80025FF0BC040E04E
:1034E00050E065E070E00E94A1138091E8008E77C3
:1034F0008093E8000895CF93DF9320910A0122235F
:1035000039F02091800227FF03C060E225E002C06D
:1035100068E021E02093E9002FEF3091E80021508E
:1035200035FD06C035ED3A95F1F700002111F5CFD4
:103530002091E80025FF1DC0EC0180910A01811156
:1035400005C040E050E068E070E003C070E040E09B
:1035500050E0CE010E94A1138091E8008E77809305
:10356000E80080E2FE01A8EFB1E001900D928A959B
:10357000E1F7DF91CF9108958093820270938402E6
:103580006093830280912502843001F585E0809369
:10359000E9008FEF9091E800815095FD06C095ED10
:1035A0009A95F1F700008111F5CF8091E80085FF31
:1035B0000DC040E050E063E070E082E892E00E94DD
:1035C000A1138091E8008E778093E80008957894A5
:1035D0001F920F920FB60F9211248F939F93AF9368
:1035E000BF9380917C0290917D02A0917E02B09168
:1035F0007F020196A11DB11D80937C0290937D02F4
:10360000A0937E02B0937F02BF91AF919F918F9163
:103610000F900FBE0F901F9018959C014FB7F89414
:1036200080917C0290917D02A0917E02B0917F02F8
:103630004FBF821B930B08952FB7F89480917C02A3
:1036400090917D02A0917E02B0917F022FBF0895DC
:103650001F920F920FB60F9211248F939F93AF93E7
:10366000BF9380917B02811113C080917C02909165
:103670007D02A0917E02B0917F024196A11DB11DF5
:1036800080937C0290937D02A0937E02B0937F0290
:10369000BF91AF919F918F910F900FBE0F901F9090
:1036A000189520910A012223C9F02091800227FF5A
:1036B00015C0262F2695269526952E31C8F4FC0197
:1036C000E20FF11D677081E090E001C0880F6A95FC
:1036D000EAF780959281892382830895FC010696FA
:1036E0002281621301C012823196E817F907C1F7EF
:1036F00008952091790230917A022817390771F0E4
:1037000090937A0280937902E0917702F0917802A7
:10371000309721F00084F185E02D099508952091DE
:103720007502309176022817390771F0909376026E
:1037300080937502E0917702F0917802309721F042
:103740000680F781E02D09950895E0917702F091C8
:103750007802309729F00190F081E02D09950895C5
:1037600080E00895CF93DF930E94162166E070E019
:103770000E94E121D82F0E9416216EE070E00E9485
:10378000E121C82F6D2F782F80E00E9466080497F2
:10379000C59718F48D2F9C2F02C00E94B21BDF9199
:1037A000CF9108950E941C1B20917102211104C029
:1037B00020917202222321F090936F0280936E0277
:1037C00020917302211104C020917402222321F060
:1037D00090936D0280936C02E0917702F0917802F1
:1037E000309731F00480F581E02D80E792E0099573
:1037F00008958D3E39F49091720297FF35C0109272
:10380000720259C08E3E29F4909172021916BCF3CF
:103810002BC0909171028F3E29F497FF25C0109222
:10382000710249C0803F19F41916CCF31DC0909164
:103830007302893F29F41916BCF4109273023BC03D
:103840008A3F19F497FF10C0F8CF8B3F39F490915D
:10385000740297FF09C0109274022DC08C3F21F4AE
:10386000909174021916BCF39FE0980F983080F481
:1038700021E030E0A90102C0440F551F9A95E2F7FC
:10388000CA0180959091700289238093700213C0C1
:103890008D3F21F480916B028E7F0BC08E3F21F40F
:1038A00080916B028D7F05C08F3F29F480916B0260
:1038B0008B7F80936B0280917102811106C0809191
:1038C0007202811102C010926A028091730281110A
:1038D00006C080917402811102C01092690208959D
:1038E00080916B0280FD18C081FD14C082FD16C05E
:1038F00080916902882381F08C3380F427E0829FD5
:10390000C00111246CE370E00E94E121862F672B37
:1039100019F005C083E0089581E0089587E00895D7
:1039200080916B0280FD17C081FD17C082FD19C018
:1039300080916A02882399F08C3398F428E3829F5F
:10394000C00111246CE370E00E94E121862F672BF7
:1039500049F481E008958EE008958CE1089588E0AF
:10396000089588E308958D3E21F40E94901C81956E
:1039700004C08E3E29F40E94901C80937202089528
:103980008F3E21F40E94901C819504C0803F29F451
:103990000E94901C809371020895893F19F40E943F
:1039A000701C05C08A3F31F40E94701C8195809381
:1039B000730208958B3F21F40E94701C819504C00E
:1039C0008C3F29F40E94701C8093740208959FE03C
:1039D000980F983078F421E030E0A90102C0440F3C
:1039E000551F9A95E2F7CA0190917002892B809336
:1039F000700208958D3F21F480916B0281600BC0AD
:103A00008E3F21F480916B02826005C08F3F29F4C4
:103A100080916B02846080936B02089580E090E057
:103A20000E948F1B80E090E00E94791B1092E601BB
:103A30000E94A20AE0E7F2E085E0DF011D928A958C
:103A4000E9F710926A021092690210926B020E94CA
:103A5000D21B0895A0E0B0E0E0E3FDE10C949C20CF
:103A60008C01C0903A02D0903B02E0903C02F09072
:103A70003D028091E8019091E901A091EA01B091A5
:103A8000EB01C82AD92AEA2AFB2ACFE1D0E0D701E4
:103A9000C6010C2E04C0B695A795979587950A94F4
:103AA000D2F780FD04C0219790F7B12C09C0BC2E3D
:103AB000B8018C2F0E9466080E947F08019799F335
:103AC0008B2DCDB7DEB7E9E00C94B820CF93DF9310
:103AD000EC010E942A1DBE010E9466080E947F0818
:103AE000DF91CF910895292F9E3080F5863070F5B3
:103AF00090E036E0239F800D911D1124682F6770A0
:103B000023E0969587952A95E1F725E0289FF00117
:103B1000299FF00D1124EB57FD4F40E050E080E06D
:103B2000219130E0062E02C0369527950A94E2F7DF
:103B300021703327042E01C0220F0A94EAF7822B4A
:103B40004F5F5F4F4530510559F7089580E0089564
:103B5000292F9E3090F5863080F590E036E0239F47
:103B6000800D911D1124282F277051E001C0550FA1
:103B70002A95EAF723E0969587952A95E1F725E0BF
:103B8000289FF001299FF00D1124EB57FD4F20E0F5
:103B900030E070E04081CB01022E02C096958795FF
:103BA0000A94E2F781708195842785238427819385
:103BB0002F5F3F4F2530310569F70895CF92DF928F
:103BC000EF92FF92CF93DF93CDB7DEB7A0970FB6FA
:103BD000F894DEBF0FBECDBF0E9499186B017C0127
:103BE000809124028823B1F02FEF80E792E02150EA
:103BF00080409040E1F700C0000085E08983C70164
:103C0000B6010E9431188A838EEF8B83CE01019614
:103C10000E94CB13C0923A02D0923B02E0923C0247
:103C2000F0923D020E940E1DA0960FB6F894DEBFE2
:103C30000FBECDBFDF91CF91FF90EF90DF90CF907F
:103C400008950F931F9341E050E060E070E004C0DE
:103C5000440F551F661F771F8A95D2F740955095E0
:103C60006095709580913A0290913B02A0913C0240
:103C7000B0913D028A019B01082319232A233B238B
:103C8000C901B8010E94DE1D1F910F9108950F9385
:103C90001F9341E050E060E070E004C0440F551F06
:103CA000661F771F8A95D2F780913A0290913B0266
:103CB000A0913C02B0913D028A019B01082B192B77
:103CC0002A2B3B2BC901B8010E94DE1D1F910F91C9
:103CD00008956093E8017093E9018093EA0190935D
:103CE000EB010E940E1D0895FC01808191810E94CC
:103CF000661D92959F70963079F010F4925001C035
:103D00009A50923068F4803F69F018F4883E40F48D
:103D100009C0843F29F406C0883E20F0813F11F09D
:103D200080E0089581E0089580910A01882331F0B0
:103D30008091800287FF02C08EE101C086E0EFE63D
:103D4000F1E0DF011D928A95E9F70E940E1D0895AA
:103D5000882321F00E949B0A0E94A20A08958823CA
:103D600039F09091F501892B8093F5010E94A20A08
:103D70000895882391F19CEF980F913A30F4682FC1
:103D80008DE691E00E94511B0DC090E2980F983093
:103D900060F4877091E001C0990F8A95EAF7892F46
:103DA0000E949B0A0E94A20A08959BE5980F9330F7
:103DB00028F480E090E00E948F1B089598E5980F0A
:103DC000973128F480E090E00E94791B08958D3EA1
:103DD00020F00E94F91B0E94D21B0895CF938823E4
:103DE00009F49FC0C82F8CEF8C0F813A08F05BC09C
:103DF00080910A018823E1F08091800287FF18C03A
:103E0000EC2FE695E695E695F0E0E359FE4F8281CA
:103E1000282F30E04C2F477081E090E002C0880FDF
:103E2000991F4A95E2F782239323892B59F411C0F5
:103E3000EFE6F1E08191C81729F081E0E537F80756
:103E4000C9F707C06C2F8DE691E00E94511B0E94BC
:103E5000A20A80910A018823B1F08091800287FF35
:103E600012C0EC2FE695E695E695F0E0E359FE4F9B
:103E7000C77081E090E001C0880FCA95EAF792818F
:103E8000892B828320C0AFE6B1E0EFEF80E09D9107
:103E9000C917C9F0EF3F19F4911101C0E82F8F5FE6
:103EA0008630A9F735C080E28C0F883078F4C7706F
:103EB00081E090E001C0880FCA95EAF79091F50182
:103EC000892B8093F5010E94A20A2BC0EBE5EC0F31
:103ED000E33040F4F0E0E75EFE4F808190E00E9426
:103EE0008F1B1FC0E8E5EC0FE73150F4F0E0EE0F58
:103EF000FF1FE45EFE4F808191810E94791B11C0FB
:103F0000CD3E78F08C2F0E94B31C0E94D21B09C0BA
:103F1000EF3FC9F20E2E000CFF0BE359FE4FC28398
:103F2000D2CFCF9108951F93CF93DF93182FEB013A
:103F30000E94EE1E209741F08FE99FE00197F1F774
:103F400000C000002197F6CF812F0E94B91EDF919B
:103F5000CF911F9108951092B9008CE08093B80022
:103F60000895A0E0B0E0E7EBFFE10C949A20B82EB2
:103F7000EB010E941C1B6C01C431D10558F0CF3FEE
:103F80008FEFD80759F0CE0164E170E00E947F20E6
:103F90007B0107C0EE24E394F12C03C025E0E22E60
:103FA000F12C84E8A82E94EA992E1092BC009092ED
:103FB000BC000E941C1B8C018091BC0087FD08C0C6
:103FC0000E941C1B801B910B8E159F05A8F32AC015
:103FD0008091B900887F883041F08091B900887F56
:103FE000803119F00FEF1FEF1FC0B092BB00A092FD
:103FF000BC000E941C1B8C018091BC0087FD08C086
:104000000E941C1B801B910B8E159F05A8F30AC0F4
:104010008091B900887F883111F0803419F700E071
:1040200010E00EC00EEF1FEFCF3F8FEFD80709F45F
:10403000BCCFC6010E940D1B8C179D0708F4B5CF9D
:10404000C801CDB7DEB7EBE00C94B6200F931F93F9
:10405000CF93DF93EB018093BB0084E88093BC0097
:104060000E941C1B8C018091BC0087FD0EC0CF3FBD
:104070008FEFD807C1F30E941C1B801B910B8C177C
:104080009D0788F38EEF9FEF0CC02091B900287F29
:1040900081E090E0283211F480E090E091958195E4
:1040A0009109DF91CF911F910F9108950F931F9365
:1040B000CF93DF93EC0184E88093BC000E941C1B2B
:1040C0008C018091BC0087FD0EC0CF3F8FEFD807D9
:1040D000C1F30E941C1B801B910B8C179D0788F35A
:1040E0008EEF9FEF03C08091BB0090E0DF91CF91F6
:1040F0001F910F91089584E98093BC000895AA1B35
:10410000BB1B51E107C0AA1FBB1FA617B70710F0C2
:10411000A61BB70B881F991F5A95A9F780959095F4
:10412000BC01CD0108952F923F924F925F926F9202
:104130007F928F929F92AF92BF92CF92DF92EF9237
:10414000FF920F931F93CF93DF93CDB7DEB7CA1BB8
:10415000DB0B0FB6F894DEBF0FBECDBF09942A88E3
:10416000398848885F846E847D848C849B84AA848B
:10417000B984C884DF80EE80FD800C811B81AA8118
:10418000B981CE0FD11D0FB6F894DEBF0FBECDBFE3
:10419000ED0108958F929F92AF92BF92CF92DF92DE
:1041A000EF92FF92CF93DF93EC01688179818A814E
:1041B0009B81611571058105910521F464E279ED1A
:1041C0008BE597E02DE133EF41E050E00E947E2146
:1041D00049015A019B01AC01A7EAB1E40E949D216B
:1041E0006B017C01ACEEB4EFA50194010E94AB2100
:1041F000DC01CB018C0D9D1DAE1DBF1DB7FF03C0A3
:104200000197A109B04888839983AA83BB839F77CC
:10421000DF91CF91FF90EF90DF90CF90BF90AF9064
:104220009F908F9008950E94CA20089580E091E0A9
:104230000E94CA200895A0E0B0E08093000190930E
:104240000101A0930201B09303010895DC01CB01A9
:10425000FC01F999FECF06C0F2BDE1BDF89A319696
:1042600000B40D9241505040B8F70895F999FECF2F
:1042700092BD81BDF89A992780B50895A6E1B0E076
:1042800044E050E00C942821A8E1B0E042E050E086
:104290000C942821DC01A40FB51F4150504048F078
:1042A000CB01840F951F2E910E945B2141505040FD
:1042B000D0F70895262FF999FECF92BD81BDF89AC7
:1042C000019700B4021639F01FBA20BD0FB6F8945A
:1042D000FA9AF99A0FBE08950396272F0E945B2140
:1042E0000E945A21252F0E945B21242F0C945B21D0
:1042F0000196272F0E945B210C945A21052E97FBD3
:104300001EF400940E94952157FD07D00E94B02111
:1043100007FC03D04EF40C949521509540953095B0
:1043200021953F4F4F4F5F4F089590958095709521
:1043300061957F4F8F4F9F4F08950E94D221A59F77
:10434000900DB49F900DA49F800D911D1124089590
:10435000B7FF0C949D210E949D21821B930B089511
:10436000A1E21A2EAA1BBB1BFD010DC0AA1FBB1F79
:10437000EE1FFF1FA217B307E407F50720F0A21BEB
:10438000B30BE40BF50B661F771F881F991F1A9458
:1043900069F760957095809590959B01AC01BD0182
:1043A000CF010895A29FB001B39FC001A39F700DDC
:1043B000811D1124911DB29F700D811D1124911D2D
:1043C000089597FB072E16F4009407D077FD09D0C7
:1043D0000E947F2007FC05D03EF4909581959F4F69
:1043E0000895709561957F4F0895EE0FFF1F05901A
:1043F000F491E02D09940F931F93CF93DF938230B4
:10440000910510F482E090E0E091BE02F091BF02CD
:1044100020E030E0A0E0B0E0309719F14081518118
:104420000281138148175907C8F08417950769F46A
:10443000109731F012960C93129713961C9327C085
:104440000093BE021093BF0222C02115310519F05E
:104450004217530718F49A01BD01EF01DF01F8017B
:10446000DBCF21153105F9F0281B390B243031053C
:1044700080F48A819B816115710521F0FB01938392
:10448000828304C09093BF028093BE02FE013296E5
:1044900044C0FE01E20FF31F819391932250310932
:1044A000398328833AC02091BC023091BD02232B6E
:1044B00041F420910601309107013093BD02209311
:1044C000BC0220910401309105012115310541F410
:1044D0002DB73EB74091080150910901241B350BBF
:1044E000E091BC02F091BD02E217F307A0F42E1B8D
:1044F0003F0B2817390778F0AC014E5F5F4F241748
:10450000350748F04E0F5F1F5093BD024093BC0229
:104510008193919302C0E0E0F0E0CF01DF91CF9171
:104520001F910F910895CF93DF93009709F481C0F5
:10453000FC01329713821282A091BE02B091BF0299
:10454000109781F420813181820F931F2091BC024A
:104550003091BD022817390751F5F093BD02E09361
:10456000BC0267C0ED0120E030E0CE17DF0740F469
:104570004A815B819E0141155105F1F0EA01F5CFB9
:10458000D383C28340815181840F951FC817D907F7
:1045900059F488819981840F951F029691838083B5
:1045A0008A819B81938382832115310529F4F093BD
:1045B000BF02E093BE023DC0E901FB83EA8349915B
:1045C0005991C40FD51FEC17FD0761F480819181CB
:1045D000840F951F0296E9019983888382819381D4
:1045E0009B838A83E0E0F0E012968D919C91139773
:1045F000009719F0FD01DC01F7CF8D919C91119787
:104600009D012E5F3F4F820F931F2091BC0230917E
:10461000BD022817390769F4309729F41092BF02B8
:104620001092BE0202C013821282B093BD02A09308
:10463000BC02DF91CF910895FB01DC0104C08D9194
:104640000190801921F441505040C8F7881B990B04
:064650000895F894FFCF6D
:10465600010000000000C002200001591A7B1A5C0C
:104666001A020FFD0EFC0E2000818283E200E90093
:10467600EA00B500B600B700CD008301CC008A0180
:104686009201940121022302240225022602270216
:104696002A02B300B4006F0070004022476D8B04FD
:1046A60069042204B503DD04F60416052F057844D3
:0A46B6004F52782F796A64764A00AB
:00000001FF
